S0220000687474703A2F2F737265636F72642E736F75726365666F7267652E6E65742F1D
S32500000000000600201D42000031420000334200003542000035420000354200000000000008
S32500000020000000000000000000000000C1DD0100354200000000000061E3010019E4010061
S325000000403542000035420000354200003542000035420000354200003542000035420000E2
S325000000603542000035420000354200003542000035420000354200003542000035420000C2
S325000000803542000035420000354200003542000035420000354200003542000035420000A2
S325000000A0354200003542000035420000354200003542000035420000354200003542000082
S325000000C0354200003542000035420000354200003542000035420000354200003542000062
S325000000E0354200003542000035420000354200003542000035420000354200003542000042
S32500000100354200003542000035420000354200003542000035420000354200003542000021
S32500000120354200003542000035420000354200003542000035420000354200003542000001
S325000001403542000035420000354200003542000000000000000000003542000035420000CF
S32500000160354200003542000000000000354200003542000035420000354200003542000038
S325000001803542000035420000354200003542000035420000354200003542000035420000A1
S325000001A0354200003542000035420000354200003542000035420000354200003542000081
S325000001C0354200003542000035420000354200003542000035420000354200003542000061
S325000001E0354200003542000035420000354200003542000035420000354200003542000041
S3250000020055AA55AA020000001C420000E4FD0100EAF818841369DA76D436BF9C4EF68850CD
S32500000220CEF20000016841F47001016000F004B8FEE7FEE7FEE7000000F002F800F0D1F88A
S3250000024014A696E8000CB244B344DA4501D100F0C8F8BAE80F000FA696E83000A5EB040519
S3250000026004EB0607AAEB0704A7F101074FEA15154FEA3414A4F10104AC4201D300F0B1F863
S3250000028013F0010F18BFFB1A43F0010300F001F8DBE71847ECF501000CF601000A444FF0A6
S325000002A0000C10F8013B13F0070408BF10F8014B1D1108BF10F8015B641E05D010F8016B9B
S325000002C0641E01F8016BF9D113F0080F1EBF10F8014BAD1C0C1B09D16D1E58BF01F801CBEB
S325000002E0FAD505E014F8016B01F8016B6D1EF9D59142D6D3704700007047000000230024DD
S3250000030000250026103A28BF78C1FBD8520728BF30C148BF0B6070476E2900F0458470290C
S3250000032000F09B8566291CF0328565291CF02F8567291CF02C8561291CF02B8503681B0AE4
S3250000034028BF41F08001692900F0F283642900F0EF83752900F0EC836F2900F02985782944
S3250000036000F06785E92900F0C384E42900F0C084F52900F0BD84EF2900F02685F82900F0FE
S3250000038066850368DB0928BF41F08001632901F01787732901F01C87E32901F02787F32972
S325000003A001F02C87002070471FB51CF0DBFC00F0D7FA0400002000211BF008FF401C6060D1
S325000003C0002000211BF018FFE06001F0C3F900F0B1FA1FBD10B5002002F070FC01F023FAFF
S325000003E010BD17F0DBF902F098FC1146FFF7DCFF0FB417F0D1F90FBC17F076FD02F078FE60
S3250000040003B4FFF7E7FF03BC03F028F902480349034A044B70470000701D022000060020B2
S32500000420701F02200000002010B500F099FA001D10BD00BF99BD010053EA020C23D010B59A
S325000004404C1084EA530404D54042C1F1000138BF491E1B4204D55242C3F1000338BF5B1E18
S3250000046000F086FA14F0804F04D04042C1F1000138BF491E14F0004F04D05242C3F100035A
S3250000048038BF5B1E10BD13B540424FF0000070EB0104B8BF012001F0004100281CBF6FF004
S325000004A000414FF0FF30AFF300801CBD0FB4044910B503AA029800F0ABFB10BC5DF814FBAA
S325000004C0540C00200FB4014610B504AA039800F09FFB10BC5DF814FB0FB41CB50C0007AA73
S325000004E0009007D04142A14202D32044401E01E04FF0FF30074B7B4469460190069800F064
S325000005006CFB0021002C01D0009A11701CBC5DF814FB0000070700007CB51D4616460C00EF
S32500000520009007D04142A14202D32044401E01E04FF0FF30064B7B442A46694601903046CC
S3250000054000F04BFB002C02D0009A002111707CBDC70600000FB400B58DB010A90990009187
S325000005600B904FF0FF300A9000200C90064878440690064878446A4607900F9909A800F0DC
S3250000058003FF0DB05DF814FB370E00004F0E000070B5064600F0E8F90468054630460A22F5
S325000005A0002100F002F82C6070BD2DE9F04791460F4680460446002614F8015B2DB1FFF786
S325000005C033FF0068405DC007F6D12B2D02D02D2D18D0641E4A463946204600F005FF27B121
S325000005E03968A14201D1C7F800804FF0020471050BD54042002803DD00F0B6F90460A00791
S32500000600BDE8F08746F48066E4E70028F8DA00F0ABF904606FF00040F2E70B46014618466D
S3250000062001F03FB90EB5054614460E4613A001F04FF9284601F04CF916A001F049F9304620
S3250000064001F046F915A001F043F900218DF80B100A210DF10A008DF80A1008E094FBF1F295
S3250000066001FB124294FBF1F4303200F8012D002CF4DC01F02DF901F009F900002A2A2A2084
S32500000680617373657274696F6E206661696C65643A2000002C2066696C6520002C206C6970
S325000006A06E65200040EA0103024630B59B0710D14FF0013400E008C208C91D1B9D4315EA5D
S325000006C0C41FF8D013F0FF0102F8011B0DD01B0AF8E711F8013B002B02F8013B05D011F8EB
S325000006E0013B002B02F8013BF3D130BD10B5431C02E010F8011B71B18107FAD14FF0013295
S3250000070002C88C1A8C4314EAC211F9D0C01A0A0603D0C01E10BDC01A10BD0A0401D0801E6E
S3250000072010BD0902FCD0401E10BD032A40F2308010F0030C00F0158011F8013BBCF1020F3E
S32500000740624498BF11F801CB00F8013B38BF11F8013BA2F1040298BF00F801CB38BF00F8AE
S32500000760013B11F0030301F0BD80083AC0F0088051F8043B083A51F804CBA0E80810F5E72A
S32500000780121D5CBF51F8043B40F8043BAFF30080D20724BF11F8013B11F801CB48BF11F802
S325000007A0012B24BF00F8013B00F801CB48BF00F8012B704702F0FF0343EA032242EA024294
S325000007C000F024B84FF000020429C0F0128010F0030C00F01B80CCF1040CBCF1020F18BF9B
S325000007E000F8012BA8BF20F8022BA1EB0C0100F00DB85FEAC17C24BF00F8012B00F8012B24
S3250000080048BF00F8012B70474FF0000200B5134694469646203922BFA0E80C50A0E80C50E9
S32500000820B1F12001BFF4F7AF090728BFA0E80C5048BF0CC05DF804EB890028BF40F8042BCD
S3250000084008BF704748BF20F8022B11F0804F18BF00F8012B704710B5044610F0030F08BF5E
S3250000086011F0030F40F015804FF0013E121FC0F20E8051F8043BA3EB0E0C2CEA030C1CEA50
S32500000880CE1C08BF40F8043BF0D0A1F1040102F10402521E08DB11F8013B00F8013B002BE3
S325000008A0F7D11146FFF78EFF204610BD0000000030B44FF0013C50F8042B51F8043BCCFA38
S325000008C052F4D51A20D1FCB950F8042B51F8043BCCFA52F4D51A17D1B4B950F8042B51F828
S325000008E0043BCCFA52F4D51A0ED16CB950F8042B51F8043BCCFA52F4D51A05D1002CDAD00E
S3250000090030BC4FF00000704729BAB1FA81F111F01801D1F120008440F2D1CA40CB4012F055
S32500000920FF0213F0FF0330BCD01A7047704770477047000008487CB5784400900748784421
S32500000940009C0546019004E02046016808448047241DAC42F8D17CBDA0F00100AAF00100F6
S32500000960004870471C0D002000487047FC0C002053EA020C00F069802DE9F04B4FF0000648
S32500000980002B1FBFB3FA83F503FA05F424FA05F65E4012BF1643B2FA82F502FA05F4C5F17E
S325000009A020051EBF22FA05FC44EA0C04203556EA044C4FEA144418BF641C4FF000084FF081
S325000009C00009904271EB030C39D3002919BFB1FA81F701FA07F6B0FA80F700FA07F6C7F1D3
S325000009E020071EBF20FA07FC46EA0C062037B6FBF4FCA7EB0507103F07F01F0BCBF12006A6
S32500000A002CFA06F60CFA0BFB44BFB3460026202FA4BF5E464FF0000B5BEA060C08BF4FF083
S32500000A20010B19EB0B0948EB0608ABFB027C06FB02CC0BFB03CCC01B71EB0C01C1E70B4646
S32500000A40024641464846BDE8F08B13B5084318BF4FF0FF300146AFF30080BDE81C4070479A
S32500000A600B460146184600F0D3B870B5044685690068C10601D5302600E02026C00707D083
S32500000A8070BDD4E9012130469047206A401C20626D1EF6D570BD70B5044685690078C00770
S32500000AA007D170BDD4E9012120209047206A401C20626D1EF6D570BD09684A0501D540B2C2
S32500000AC07047C905FCD500B2704709684A0501D5C0B27047C905FCD580B2704770B50C4693
S32500000AE00546012A05D02878800600D5EA69002302E0012305E05B1C934202D2E05C0028C5
S32500000B00F9D1A869E618C01AA861286A184428622846FFF7AAFF04E0D5E9012114F8010BB2
S32500000B209047B442F8D32846FFF7B5FF70BD00002DE9F0410646002410687529314616A5D3
S32500000B4010D0FFF7B9FF002802DA404213A507E031688A0701D512A502E0490704D511A564
S32500000B60012401E0FFF7B1FF00210A2206F1240709E0B0FBF2FCB0FBF2F302FB1C003030C9
S32500000B8078541846491C0028F3D123462A463046BDE8F04100F025BF000000002D000000AE
S32500000BA02B0000002000000011680268006A530501D508700AE0D30501D5088006E01306D2
S32500000BC003D5C217C1E9000200E008600120704701694A1C02610878704700B58FB0CDE97E
S32500000BE001310021059105497944CDE903101146684600F03DF90FB000BD0000E5FFFFFFA9
S32500000C00D1E900239A4202D2531C0B6010707047074B70B50D467B44FFF7DFFF044628461B
S32500000C2001F043FF10B14FF0FF3070BD204670BD0F6D01002DE9FF5F15468A460446DFF84F
S32500000C40AC80F8440027D8E900103E46CDE9001010E03AF816106A4602A802F00BF8411CF0
S32500000C6007D02178890603D5E269391891420DD80744761C2078800602D5E069B84205DD4C
S32500000C80AE42E6DB3AF816000028E2D1A069C01BA0612046FFF7E9FED8E90010CDE90010BB
S32500000CA0002017E03AF818106A4602A801F0E2FFB0F1FF3F81460BD000250DF1080B05E0F5
S32500000CC0D4E901211BF8050090476D1C4D45F7D308F10100B0428046E4DB206A3844206262
S32500000CE02046FFF7D8FEBDE8FF9F00004EC201002DE9F0418046D21D22F007020025D2E971
S32500000D000002F52915A614D0011E72F1000106DA0023D0EB030063EB020211A608E0D8F809
S32500000D2000108B0701D50FA602E0490701D50EA601251146002408F1240704E000F00CFE21
S32500000D4030323A55641C50EA0102F7D12B46324621464046BDE8F04100F043BE000000007A
S32500000D602D0000002B0000002000000030B4002100F1240408E002F00705D208303542EA86
S32500000D804372DB086554491C52EA0305F3D10468002310A2250708D504F020040C4304D00A
S32500000DA0C46901230CA2641EC46130BC00F019BE10B5044621461068FFF787FE02462046BD
S32500000DC0BDE810400023D1E7D21D22F00701D1E90023CBE70000000030000000F0B40D467E
S32500000DE00188090502D5214C7C4402E01F4C7C440E34002100F1240608E002F00F071209BC
S32500000E00E75D42EA03721B097754491C52EA0307F3D102780023120704D5702D06D009B1CD
S32500000E20022311342246F0BC00F0DBBD01231034F8E770B504460D4621461068FFF745FE85
S32500000E40024629462046BDE870400023C6E7D21D22F00703D3E90023C0E70368126843F0A1
S32500000E60200303600823C3610023B7E7B0C001002DE9F05F894604464FF0000ADFF874B1A2
S32500000E80FB44C0F820A02046E1688847002874D0252806D0D4E901219047206A401C20626A
S32500000EA0F1E700265F462046E16888472028054607DB312D05D2781910F8200C08B106439A
S32500000EC0F1E7B00701D526F00406C4F81CA00027C4F818A02A2D09D028461BF028F938B3BF
S32500000EE004EB8708303DC8F8185019E059F8041B204604EB87029161E1688847012F05460D
S32500000F0018D1E069002820DA26F020061DE0D8F8180000EB800005EB40003038C8F818007B
S32500000F202046E168884705461BF001F90028EED1012F0AD02E2D08D12046E16888477F1C9F
S32500000F400546022F46F02006C4DBA069002803DA404246F00106A061F00701D026F0100652
S32500000F606C2D0BD0682D09D04C2D39D06A2D35D0742D35D07A2D33D016E038E0E1682F464F
S32500000F8020468847B842054609D16C2F26D04FF48060E168064320468847054604E06C2FB2
S32500000FA01AD04FF4807006430DB3A5F14100192802D8203546F400664A4629462046266033
S32500000FC04E46FFF7A9F980B101280BD0F61D26F0070000F1080956E74020E4E78020D8E7B1
S32500000FE00020D6E706F104094DE7284652E7206ABDE8F09F40C001002DE9FF4F1C469146D3
S325000010004FF0FF3581B000218A468846D4E90167A16902986D1C8847216A834688470028FB
S32500001020F6D1BBF1FF3F0CD0002F26F4C0661ADD700615D5BBF12B0F0AD0BBF12D0F0FD1CF
S3250000104004E04FF0FF3005B0BDE8F08F46F48066A16902986D1C88477F1E8346002F02DDCF
S32500001060BBF1300F03D0B9F1000F2AD025E0A1696D1C02987F1E46F400768847002F8346B3
S3250000108005DDBBF1780F06D0BBF1580F03D0B9F1000F10D011E0B9F1000F02D0B9F1100F9B
S325000010A00BD1A1696D1C02987F1E26F4007688478346102000E0082081464FEAE97000903B
S325000010C017E00A20F8E74346AAFB0928DDF800C07F1E03FB098046F4007605F101050AFB41
S325000010E00C0112EB0B0A029841EBEB78A16988478346002F06DD4946584601F083F85FEA0C
S32500001100000BE0D5E16902988847B00502D46FF0010098E7F00718D1700610D551467005A5
S3250000112005D50023D1EB030163EB080200E042462068031D23600068C0E9001205E0206871
S32500001140011D21600068C0E900A828467BE72DE9FF5F1D464FF0FF3B91464FF000085F464E
S32500001160D5E90146A96901987F1C8847296A824688470028F6D1BAF1FF3F0CD0002E24F42B
S32500001180C06419DD600614D5BAF12B0F09D0BAF12D0F0ED103E0584604B0BDE8F09F44F4BB
S325000011A08064A96901987F1C8847761E8246002E02DDBAF1300F03D0B9F1000F26D032E049
S325000011C0A969761E01987F1C44F400748847002E824605DDBAF1780F06D0BAF1580F03D0EF
S325000011E0B9F1000F10D01EE0B9F1000F02D0B9F1100F18D1A969761E01987F1C24F40074AF
S3250000120088478246102002E0082000E00A20814609E0A96908FB0908761E01987F1C44F417
S32500001220007488478246002E05DD4946504600F0E9FF0028EDDAE96901988847A00502D46C
S325000012406FF00100A8E7E00725D1600613D5600502D5C8F1000000E0404629680A1D2A60D1
S325000012600968220501D5087015E0220701D5088011E008600FE02868011D296000682105F9
S3250000128002D580F8008006E0210702D5A0F8008001E0C0F8008038467EE72DE9FF5F4FF0CD
S325000012A000089946144646469169D2E901A7DDF838B001988847054659EA0B0005D009E082
S325000012C0A1690198761C88470546216A284688470028F5D1681C03D05FEACA7005D015E05F
S325000012E04FF0FF3004B0BDE8F09F2068011D2160D0F800800AE05FEACA7001D108F8015B88
S32500001300A169761C01987F1E88470546002F1ADD681C18D0B9F1000F0DD0E81705EBD06094
S32500001320421120F01F0059F822102A1A012090400142E0D107E0BBF1000FDCD12846216A31
S3250000134088470028D7D0E16901988847BBF1000F07D1002E05DD5FEACA7002D1002188F89D
S325000013600010A068B84203DDBBF1000F03D017B16FF00100B6E73046B4E700000268114452
S325000013801378016018467047D16005497944516104497944116200211161114600F040BF02
S325000013A0EDFFFFFF3B6B0100426842B1016811F8013B23B1521EC0E9001218467047012115
S325000013C0C160881E704742685AB1C368016843B983688B4205D0491E521CC0E90012002007
S325000013E070474FF0FF3070472DE9F05F824615468B4600270AF10104B9460078302801D0EB
S325000014009DB113E014F8010B0127782803D0582801D045B10AE00DB1102D07D1002714F89B
S32500001420010B102502E0082500E00A250026B0460EE005FB080005FB06F101271FFA80F885
S3250000144001EB1046B6F5803F00D3B94614F8010B294600F0D7FE0028EBDABBF1000F05D03F
S325000014600FB1641E00E05446CBF80040B9F1000F06D0FFF779FA02210160C81EBDE8F09F11
S3250000148048EA0640FAE72DE9FF4F4FF000089A461446C146464683B0D2E901B7CDF800808A
S325000014A0CDF80480916904988847109905465AEA010005D009E0A1690498761C884705462F
S325000014C0216A284688470028F5D1681C03D05FEACB7005D02AE04FF0FF3007B0BDE8F08F4D
S325000014E02068011D2160D0F800801FE002A86A46E9B201F09FFB411C07D0801C09D04FF010
S3250000150000095FEACB7007D00AE0E169049888473EE04FF0010904E0BDF8081028F8021B6D
S325000015207F1EA1690498761C88470546002F1ADD681C18D0BAF1000F0DD0E81705EBD0606E
S32500001540421120F01F005AF822102A1A012090400142CBD107E010980028C7D12846216A23
S3250000156088470028C2D0E16904988847B9F1000F0ED1109830B9002E04DD5FEACB7001D199
S32500001580A8F80000A068B84202DD109818B117B16FF00100A1E730469FE72DE9FF4F4FF004
S325000015A000089B461446454683B0D2E90196CDF80080CDF804809169DDF848A00498884722
S325000015C007465BEA0A0005D009E0A16904986D1C88470746216A384688470028F5D1781C06
S325000015E003D05FEAC97005D01BE04FF0FF3007B0BDE8F08F2068011D2160D0F8008010E018
S325000016005FEAC97007D16A464046B9B201F032FB411C31D08044A1696D1C0498761E8847F7
S325000016200746002E14DD781C12D0BBF1000007D03B46DDE9101201F029FA0028E0D107E002
S32500001640BAF1000FDCD13846216A88470028D7D0E16904988847BAF1000F06D1002D04DD22
S325000016605FEAC97001D188F80000A068B04203DDBAF1000F03D016B16FF00100B7E72846F6
S32500001680B5E72DE9FF5F9B46144600273D469169D2E90196DDF840A00198884780465BEADB
S325000016A00A0005D009E0A16901986D1C88478046216A404688470028F5D1B8F1FF3F03D013
S325000016C05FEAC97005D014E04FF0FF3004B0BDE8F09F2068011D216007680AE05FEAC97061
S325000016E001D127F8028BA1696D1C0198761E88478046002E15DDB8F1FF3F12D0BBF100007C
S3250000170007D04346DDE90E1201F0C0F90028E5D107E0BAF1000FE1D14046216A884700289A
S32500001720DCD0E16901988847BAF1000F05D1002D03DD5FEAC97000D13880A068B04203DDC3
S32500001740BAF1000F03D016B16FF00100BEE72846BCE7000010B542485421FFF755F8414889
S325000017605421FFF751F840485421FFF74DF83F493B483C4A3F4B08603D490A603A49196008
S32500001780531C0365481C1065012008653B48344A39A1784401F0B0F920B9384878440A387D
S325000017A001F0B4FA37482F4A35A1784401F0A4F920B9344878440A3801F0A8FA32482A4A98
S325000017C02FA1784401F098F920B92F4878440A3801F09CFA40232248DC000021224601F0FD
S325000017E068F920B125487844543801F08FFA1D4822464023002101F05CF920B121487844F5
S32500001800543801F083FA184822461023002101F050F9002806D01C487844BDE810405638D1
S3250000182001F074BA10BD104870B5006D20F001040B4801F0D9F90B4801F0D6F90A4801F04B
S32500001840D3F909E0206D20F00105204601F0CCF9204616F091F82C46002CF3D170BD00008A
S32500001860000C0020540C0020A80C002000060020040600200806002072000000F2C9010036
S3250000188077000000E1C90100BAC9010010B5002001F035FAFEF79EFDBDE81040012001F000
S325000018A0DDBE2DE9F041074615460E46102016F08FFB04000AD06760C4E9026500F048F89B
S325000018C00168216004600020BDE8F0810120FBE710B5044602E0641C01F076FF20780028E4
S325000018E0F9D110BD10B5203AC0F00B80B1E81850A0E81850B1E81850A0E81850203ABFF402
S32500001900F5AF5FEA027C24BFB1E81850A0E8185044BF18C918C0BDE810405FEA827C24BFA7
S3250000192051F8043B40F8043B08BF7047D20728BF31F8023B48BF11F8012B28BF20F8023B86
S3250000194048BF00F8012B704700487047FC0C002000487047340D002030B5B0F10A0271F124
S3250000196000034FEA900E4EEA817EB0EB0E0061EB91014FEA101E4EEA017E10EB0E0041EB76
S3250000198011114FEA102E4EEA016E10EB0E0041EB11214FEA104E4EEA014E10EB0E0041EB47
S325000019A01141401841F100014FEAD00040EA41704FEAD1014FEA810444EA907410EB8005E5
S325000019C044EB01046D1944EB0404521BA3414FF0000348BF0A3200D530BD401C41F10001E9
S325000019E030BD2DE9F0470D4699469246044600F124080168880604D5E06921F0100121607A
S32500001A0000E00120A84201DD471B00E00027A1697A1902EB0900081AA0612078C00602D4A4
S32500001A202046FFF722F8002608E0D4E901211AF806009047206A401C761C20624E45F4DBF2
S32500001A402078C0060AD52046FFF70FF806E0D4E9012130209047206A401C2062381EA7F19E
S32500001A600107F4DC07E0D4E9012118F805009047206A401C2062281EA5F10105F3DC204657
S32500001A80FFF709F82078000602D50220BDE8F0870120FBE72DE9FF4F0C461E464FF0FF3704
S32500001AA08BB0D2E90001DDF860800A908A46C1F30A5505B93D46002108464FF00000BAF15D
S32500001AC0000F00F4400005DA00EB80004FF4400101EA50004FEA9059B9F1010F00DDB946FC
S32500001AE00A9850EA4A000ED044F61050A5F2FF3545432F14B8F1000F1ED07542291E1EDD0D
S32500001B00C9F100021CE0B8F1010F4FF0000001D0302103E0F24305E02154401CB042FBDB57
S32500001B2030460022002121540B99C1F80880C1E900200FB0BDE8F08FBD1B6D1CDEE74A4629
S32500001B4000DA694206A801F061F906AB93E8070003AB83E8070050460A9919F085FD8DE875
S32500001B600700A0F500501F3800900398002D0ADD42F21F014A460844002303A9039068469D
S32500001B801AF030F809E0A0F500504A461F38002303A9039068461AF04FF88DE80700000477
S32500001BA0000C03D04FF0FF30410800E01046B8F1000F03D00022009215461EE0751E05D44F
S32500001BC0FFF7CAFE303262556D1EF9D5B3460122084302D000227F1C04E02078302801D133
S32500001BE000227F1E002A099784D01DE0112D07DAFFF7B2FE303262556D1C50EA0102F5D19B
S32500001C00084302D00098C8B10EE00021681E05E0235C625C63542254401E491C8142F7DB54
S32500001C20AB46A81B401E0990002004F80B000B98099AC0F80880C0E9002B7AE711264FF09B
S32500001C40000857E72DE9F04F88460446D21D22F0070191B0D1E90001CDE90A011AF038F9CA
S32500001C6002460B98C00F01D02D2007E02068810701D52B2002E0202101EAC000032A0990DA
S32500001C8001D0072A05DB03464146204601F07EF80BE12078800601D5E06900E00620B8F1E7
S32500001CA0650F814606D0B8F1660F18D0B8F1670F70D131E00020B9F1110F009001DB11230C
S32500001CC001E009F101030AAA01A90CA8FFF7E2FEDDE90C70002609F10105834647E00120BE
S32500001CE04B4600904FF000470AAA01A90CA8FFF7D1FEDDE90DB00C995D46002610B909F1AC
S32500001D0001000D18B9EB050003D4C0F1FF3609F10105A5EB09002BE0B9F1010F01DA4FF0B9
S32500001D2001090020B9F1110F0090484601DD112300E003460AAA01A90CA8FFF7ABFEDDE9D9
S32500001D400C704D4600268346207800070AD4AB4500DA5D4601A8012D04DD411911F8011C5D
S32500001D60302907D04F4502DA17F1040F04DA012082460FE06D1EEEE7002F02DCED1B3E44F5
S32500001D8003E0781CA84200DD7D1CB81B00F1010A4FF000472078000703D4AA4501DB4FF091
S32500001DA0FF3A0021B7F1004F0DF143088DF8431024D002202B23002F01DA7F422D230A2101
S32500001DC0021EA0F1010000DC5FB197FBF1FC97FBF1F201FB1C7C17460CF1300C08F801CD73
S32500001DE0EEE7A8F1010003702188090501D5452100E06521A0F1010800F8011C09980FA99A
S32500001E00A1EB0807FF1D00B10120411901EBEA70A1693844081A401EA0612078C00602D458
S32500001E202046FEF722FE099828B1D4E901219047206A401C20622078C00622D52046FEF7D9
S32500001E4014FE1EE0002E04DBB34502DD01A8805D00E03020D4E901219047206A401C2062B4
S32500001E60761CAAF101005FEA000A0AD1FEF778FDC0680168405CD4E901219047206A401CCD
S32500001E802062281EA5F10105DCDC07E0D4E9012118F8010B9047206A401C2062381EA7F111
S32500001EA00107F3DC2046FEF7F6FD032011B041E62DE9F04F04460D46D21D22F0070089B0B9
S32500001EC0D0E90097484639461AF002F80246F80F01D02D2307E02068810701D52B2302E02E
S32500001EE0202101EAC0038DF820300BB1012000E00020032A824601D0072A04DB2946204690
S32500001F0000F044FF3FE12078800601D40D2500E0E569C7F30A560D2D49DA00214FEA175BD2
S32500001F2008464FF00000002F00F4400007DA00EB80004FF4400100EBD07001EA60008115CF
S32500001F40012901DD4FF0FF3100224FEA850CBCF1180F06D31346ACF118004FF08052C2404A
S32500001F6003E04FF4801323FA0CF30CF10C0CBCF1200F04D3ACF1200C09FA0CF001E007FA14
S32500001F800CF000294FF0004801DD18B90FE00ED140450CD319EB02095F4121B9404502D1CD
S32500001FA09F4329EA0209BBEB175F00D0761C2088000502D57B48784402E07A4878441938E9
S32500001FC008AA302302F80A30037C0AF10101002E0AF1020A53546A4602DC4FF0300101E08B
S32500001FE04FF031014FF001088DF8001002D0A6F2FF3603E059EA470100D06B4E002D02DCEC
S325000020002178090704D54FF002082E218DF80110C44600210BE0C7F303433F01C35C491C30
S325000020206D1E02F80830052908F1010801DA002DF1DC00210CE000EB1973491C1B786D1ED1
S32500002040082902F808304FEA091908F1010801DA002DF0DC21688B0602D516E0A8F101085D
S32500002060E04505DD02EB080313F8013C302BF5D0B8F1000F09DD02EB080313F8013C2E2BBC
S3250000208003D1090701D4A8F10108002D05DD3E2102F808106D1E08F10108407C002E02F8EE
S325000020A0080008F1010804DA2D20764202F8080002E02B2002F808000A214FF47A708642DC
S325000020C008F101080BDB96FBF0F3303302F8083096FBF0F308F1010800FB136601E0642EAC
S325000020E00CDB642096FBF0F3303302F8083096FBF0F308F1010800FB136601E00A2E06DB82
S3250000210096FBF1F0303002F8080008F1010896FBF1F001FB1060303002F80800A16908F1A0
S32500002120010808EB050202EB0A00081AA0612078C00602D42046FEF798FC216A08AE01EB2C
S325000021400A00206204E0D4E9012116F8010B9047BAF1010AF7D22078C00602D52046FEF72A
S3250000216084FC6E4609E016F8010B3E280FD0D4E901219047206A401C2062B8F10108F2D249
S325000021802046FEF788FC09B00320BDE8F08F206A2844206203E0D4E90121302090476D1E6E
S325000021A0EBD3F8E72EAF010002FCFFFF10B5436913B1AFF3008001E0FEF790FC012010BDFB
S325000021C0127800F124010A7000224A700122EDE711684FF0FF32E9E710B5436913B1AFF37C
S325000021E0008001E0FEF726FD012010BD128800F1240182840022C2840122EDE711684FF0A5
S32500002200FF32E9E73A2800D2303820F02002412A01D3A2F13700884201D34FF0FF3070471D
S325000022202DE9F34F4FF0000A0C4656468DB001200C9001F10C000B9062690B98012190470F
S32500002240051E2DD0252D2CD0216A8847C0B162690B9801219047216A88470028F7D16269C3
S32500002260411E0B98904700E0761CA1690D988847216A88470028F7D1E1690D988847DBE7C5
S32500002280A1690D988847A842074601D1761CD3E7E1690D9888477F1C02D1BAF1000F6FD040
S325000022A06BE162690B9800273D46394690472A2804D162690B98012190470125DFF8D08281
S325000022C062690B9801219047A0F130010A290AD24745E5DC07EB870100EB4107303FDFD4A4
S325000022E045F01005ECE7E90601D46FF000476C280AD04C2814D0682815D06A280DD074280B
S325000023001CD07A281AD01DE062690B98012190476C2802D045F0040514E045F002050DE01A
S3250000232045F020050AE062690B9801219047682802D045F0080505E045F4006562690B9857
S3250000234001219047C4E9015765283DD019DC58287AD00CDC452837D004DC252826D0412838
S325000023609ED131E046282FD0472899D12CE05B2877D0612828D063287CD0642823D15AE0A9
S32500002380F6E06F2848D008DC66281DD067281BD0692821D06E2816D127E0702845D073288B
S325000023A068D0752847D078280DD14DE0A1690D988847252805463FF469AFE1690D98884761
S325000023C06D1C3FF46AAFD8E00D9923466A466FF001001AF040FDC5E045F0400023464FF042
S325000023E000026060A80736D43EE0E8077FF447AF2068011D21600068290501D506701BE7DB
S32500002400290701D5068017E7A90703D5F117C0E9006111E706600FE745F0400023464FF021
S3250000242008026060A80716D41EE040F60E0125EA0100606016E045F0400023464FF00A0201
S325000024406060A80707D40FE045F040006060A80708D5234610220D996FF00100FEF7CCFD1D
S3250000246080E007E0102223460D996FF00100FEF76EFE77E04FF0000963284F46C8464B46AF
S32500002480CB4602D05B2806D038E0E80601D40120A060012732E06269D4F80CB00B980121AC
S325000024A090475E2807D14FF0010949466269D4F80CB00B989047216939B900210A4603ABA1
S325000024C043F82120491C0829FADBD8B3216949B308F1010862690B98012190475D28F4D14B
S325000024E0B9F1000F09D0002003A951F82020D24341F82020401C0828F7DB03AB20690028A4
S3250000250020794FEA40701ED05B462246CDF80080CDE901970D9900286FF0010020DAFFF78B
S32500002520B0F81FE0C11703AA00EBD1614B1121F01F0102EB8302411A136801208840034348
S325000025401360C7E719E00D99224600286FF00100009702DAFEF797FF04E0FEF79EFE01E071
S32500002560FFF71BF800280ADA401C06D10C9820B14FF0FF300FB0BDE8F08F5046FAE7E907E0
S3250000258001D10AF1010A064400200C9054E60000CCCCCC0C2DE9FF4F06468BB00878FF281B
S325000025A006D0491C2D2805D000244FF0000908E000200CE00124F8E709EB8903491C00EB7C
S325000025C043090878FF28F7D114B1C9F100008146107800252C46AA4629462D2801D02B28FD
S325000025E004D1521C2D2813D0002082468B461078FF280FD04FF0000C0A21521CA5FB017816
S3250000260004FB018105FB0C11C5194BEB0104EEE70120EAE7002108464FF00000BAF1000FCE
S3250000262002D000EB80004008C0F38157012F01DD4FF0FF370E9955EA040009EB01080BD03F
S325000026404FF0020918F5FA7F16DA4FEACA70002F706008DD012007E04FEACA70C6E900B083
S325000026600FB0BDE8F08F00203060FEF77DF9C0F800901821084616E0B8F5FA7F18DD002F47
S3250000268002DAF748784401E0F6487844D0E90010C6E9001040EACA707060FEF765F9C0F8BB
S325000026A00090142108460FB0BDE8F04F1AF06CBB002108464FF00000B8F10001099002DA60
S325000026C0C7F1000200E03A4601DAC8F1000106A800F09CFB06AB93E8070003AB83E80700BD
S325000026E044F23E005BEA04010090584604D144F21E012C465D460091210C0904014306D1C3
S325000027000099240444EA15442D041039009104F07F41014306D10099240244EA15642D02FC
S325000027200839009104F07041014306D10099240144EA15742D01091F009104F040410143EC
S3250000274006D10099A40044EA9574AD00891E009104F00041084304D100986D196441401ECD
S3250000276000904FF001033A466846B8F1000FCDE9014503A902DD19F074FA01E019F047FA71
S32500002780BAF1000F04460D4601D084F00044002108464FF00000099940F2FF77484010F0D3
S325000027A00C0F07D124F00040284303D0C4F30A50B84212D1FEF7D8F8C0F80090C4F30A5082
S325000027C0B8420AD1A8487844D0E90010C6E9001004F000410843706042E7C6E900543FE748
S325000027E02DE9FF4F1F464FF0000A4FF0FF38454691B0D7E90146CDF83CA0FEF7B1F8C06811
S325000028000168405C1090B96912986D1C8847396A814688470028F6D1B9F1FF3F0AD0002ED1
S3250000282024F4D06411DDB9F12B0F08D0B9F12D0F0BD102E0404615B013E744F48064B96975
S3250000284012986D1C8847761E8146600504A901D52D2000E02B20002E01F1010B0DF1300853
S325000028608DF810003FDDB9F1690F08D0B9F1490F05D0B9F16E0F02D0B9F14E0F1CD13B4662
S3250000288001A8009580E85002DDE912126FF002001AF0E5FAC11CCED10EE0B96912986D1C47
S325000028A0884781461398761E44F4007405600F98401C002E0F9016DDB9F1300FEDD0B9F119
S325000028C0780F02D0B9F1580F0DD10F9801280AD13B46CDE90054DDE91212001F02961AF0C9
S325000028E0BCFAC11CA7D1109989453ED144F0800406E01399681CAAF1010A44F400740860B9
S32500002900B9696D1C1298761E884730288146F0D02BE01099894505D1200603D4761E44F0FD
S32500002920800418E0484619F002FC08B3761E0DF123029345A9F1300044F4007406D20BF8E5
S32500002940010B200607D5AAF1010003E0200602D40AF101008246A00502D51399681C086010
S32500002960B96912986D1C88478146002ED1DC53E0002E51DDB9F1650F02D0B9F1450F4BD1F2
S32500002980A00549D5B9696D1C1298761E24F440748847002E81460CDD2B2804D0B9F12D0FFF
S325000029A007D144F48074B96912986D1C8847761E8146E00501D52D2100E02B2108F8011B3D
S325000029C0CDF8008021E0761E0DF13901884544F400740CD2A9F1300010F0FF0088F800003F
S325000029E002D10099884509D908F1010806E0E00501D51E4801E042F20F708246B969129885
S32500002A006D1C8847814613980560002E04DD484619F08DFB0028D6D1F96912988847FF208A
S32500002A2053468BF8000088F8000000200A900B9004AA0CA90AA8FFF7ADFDA00502D46FF010
S32500002A400100F8E614F0240F12D0E0071CD13868DDE90A12031D3B600068C0E9001213E051
S32500002A6020D2010012D20100D6D00100F1D8FFFF0AA9684619F048FBE00705D13868009A66
S32500002A80011D3960006802602846D4E610B508E030F8024B9C4204D10AB1002010BD0120E9
S32500002AA010BD491EF4D2104610BD007B00F08000704770B5C468A50713D0650211D4B2F57E
S32500002AC0807F09D0B2F5007F06D0B2F5806F08D1012300F1240106E05D1E6FF07F46B542F7
S32500002AE001D3012070BD0161C361416024F470611143C160002070BD2DE9F0410C461646E7
S32500002B00070047D0104600F06FF82078611C61280AD0722802D077283CD102E00125002428
S32500002B2005E00225042402E0082448F2020511F8010B2B2806D0622809D011F8010C7428B9
S32500002B400AD00BE045F0030544F00204EFE745F0040544F00104EAE744F0100438462146E8
S32500002B6000F09CFD411C15D00021316171604FF40071F560F1617061200704D5304602223A
S32500002B80002100F0B5F9306D40F0010030653046BDE8F0810020FBE72DE9F0410D46064699
S32500002BA0104C206DC10704D0410804D020F00104F7E722460EE0542015F00AFA07000ED0C2
S32500002BC0206D47F001010843542120653846FDF71BFE3A4629463046BDE8F0418CE700208B
S32500002BE0D6E70000000C00202DE9F04704464FF0FF380026C568D4E90497A80718D0204631
S32500002C0000F032FA384600F023FD002800DA4646280502D5484614F0AFFE4C212046FDF76C
S32500002C20F3FD206D20F0010020653046BDE8F0874046FBE7F8B516460C460546FDF7F4FBF8
S32500002C40036893F80101012804D0185D78B101202C80F8BDD3F803013246214603F20313A0
S32500002C60C71868460023B84700992980F8BD4FF0FF30F8BD2DE9F04116460C460546FDF751
S32500002C80D3FB036893F80101012807D0FF2C12D8185D80B101202C70BDE8F081D3F8070107
S32500002CA03246214603F20713C7182846BC46BDE8F041002360474FF0FF30EDE72DE9F041A8
S32500002CC00646FEF745FE8046454613E016B1E068B0420ED120682860D4E90101D8F8007037
S32500002CE08847204614F048FED8F80000B842EBD100E025462C68002CE8D1BDE8F08110B52A
S32500002D0000F004FABDE8104000F0FBB910B500F015FABDE8104000F0F4B97546FEF714FE0E
S32500002D20AE4605006946534620F00700854618B020B5FDF76BFBBDE820404FF000064FF0EA
S32500002D4000074FF000084FF0000BAC46ACE8C009ACE8C009ACE8C009ACE8C00921F0070156
S32500002D608D467047B2F120030AD5C2F1200301FA02F120FA03F341EA030100FA02F0704778
S32500002D8000FA03F14FF00000704700002DE9F0411F46044603260168072A01F4006004DB5C
S32500002DA008B116A505E016A503E008B115A500E015A521F010002060A069C01EA0610FB1C0
S32500002DC0401EA0612046FDF750FE4FB1D4E9012138469047206A401C2062C01C206206E006
S32500002DE0206AFAE7D4E9012115F8010B9047761EF8D22046FDF74FFEBDE8F0814E414E009B
S32500002E006E616E00494E4600696E66002DE9F047814616468AB0354878440DC88DE80D001B
S32500002E2032487844801C03AC0DC884E80D0041F69B300844372190FBF1F290FBF1F5A5F1A2
S32500002E40800501FB12041B3C02D56442012000E00020DFF898A080460027FA44AAF1BE0A43
S32500002E600EE0E0070AD03246684607EB470101230AEB810118F0E0FE8DE8070064107F1C31
S32500002E80002CEED1194F7F44AE3F19E0E80715D007EB04100DF1180A90E80E008AE80E0030
S32500002EA0C068F04201D1981908903246012306A903A818F0C1FE03AB83E807006D10641CBD
S32500002EC0002DE3D14FF0010332466946B8F1000F03A802D018F086FE01E018F0ADFEC9E99A
S32500002EE00001C9F808200AB0BDE8F0875CA101002DE9F041044616460D464769007B80071C
S32500002F002ED0384600F0C4FB50BB3EB3012E02D0022E25D104E0204600F060FB05441DE082
S32500002F20384600F0AFFBE168002841F01001E16005DA204600F058F80120BDE8F081C903F7
S32500002F400BD56268E16A914200D81146A26911442269891A814200DD08460544002D01DAA7
S32500002F600220EAE7E16A6068E268814206D29103E06203D522F4003141F01002A6690027F2
S32500002F80AE4213DCE16A814201D90B4600E0034603EB060C2369ACEB030CAC4506DD814221
S32500002FA001D98C4600E084469C4505D1A760276042F02000A5620DE0AD1BE669AE1B814287
S32500002FC0A66000D90846C01A281A20605819606022F0200003490840E060002084F8487097
S32500002FE0ABE70000BFCFD7FFC16821F4001141F08001C16000218160016070472DE9F74F3D
S3250000300015460C464FF0FF3B3848D768D2F814A0074209D05046A96900F080FB002819DBF6
S325000030203248C0430740EF604FF000496FF000484C4501D3464600E0264600993B4650465B
S32500003040324600F073FBA96920F00042B21A1144A96128B12846FFF7C7FF5846BDE8FE8F32
S32500003060A41BE5D10020F9E770B504460569C06A6168884200D80846E16821F42011E16045
S32500003080C90312D5A84208D02246411B2846FFF7B5FF10B14FF0FF3070BD0020E562C4E969
S325000030A00150E06820F48030E060002070BD10B50446C06820F02000E060A16AA06988429B
S325000030C00DD02046FFF7D0FFE06820F4405040F01000E060A06AA0612069E062606044F2AA
S325000030E04001E0688843E06010BD00001000020010B50446AFF300802046BDE81040FDF7D7
S325000031007FB9002801D000F0A9BA704710B5002102A000F084FA012010BD00005349474166
S325000031204252543A2041626E6F726D616C207465726D696E6174696F6E00000010B5014645
S3250000314002A000F06CFA012010BD000053494752545245443A2052656469726563743A2039
S3250000316063616E2774206F70656E3A200000000010B5FDF7F9FB006810BD10B50446FDF76B
S32500003180F3FB046010BD00002DE9FF4F1F464FF03C0987B04FF00042DDE9141001F1010820
S325000031A0DDF858A002EA40500390002005908346054604460490B969461E08988847AAF1F6
S325000031C0010A0290BAF1000F3BDD02982E2815D01021FFF717F800282EDB4FF0010B059955
S325000031E0014317D0B9F1000F0BDB4A46C117FFF7B9FD05430C43A9F1040905E00120049013
S325000032000BE008B145F0010501200590049820B9361D02E0049800B1361FB969089808F10C
S3250000322001088847BBF1000FAAF1010A0290C9D00999C1F80080C5E70298702808D050281B
S3250000324006D0F96908988847BBF1000F14D04FE0002002900120BBF1000F049009D0B969D6
S32500003260089808F101088847AAF10109B9F1000F07DCF969089888476FF001000BB0BDE805
S32500003280F08F2B2804D02D280CD14FF0FF300490B969089808F101088847A9F10109B9F16D
S325000032A0000FE6DD411CE4D00A21FEF7ABFF0028DFDB029908F1010801EB810100EB410042
S325000032C00290B969089888470A21FEF79BFF099AA9F10109B9F1000FC2F8008001DD0028CB
S325000032E0E7DAF969089888470499029800FB016655EA040004D004F04041090002D006E050
S32500003300039898E0A40044EA9574AD00B61E04F00041080002D16D196441761E159810F0BC
S32500003320240F03D04FF00B095C4803E04FF028096FF07D008246564507DAAAEB06018944AE
S32500003340B9F1410F01DD4FF0410901200021A9F10102FFF707FD024628400B462140084380
S3250000336001D0012100E00021501E029143F1FF3128402140084301D0012000E0002002994D
S32500003380834651EA0B014FD0002108464FF00000039900F4400039B100EB80004FF44001A1
S325000033A000EBD07001EA60008015012802DD4FF0FF3000E013D0401C36D0029860B3BBF108
S325000033C0000F0CD14A4601200021FFF7CBFC28402140084301D0012000E00020E0B10120B4
S325000033E04A460021FFF7BEFC034640190A4661412D1A8C4111D3B9F1400F09DD159810F04E
S32500003400240F02D0AAF1340603E0AAF1170600E0761C00254FF0004406E05B1E42F1FF3254
S3250000342020EA030521EA0204CAF10100B04206DA1B49039808430190002000900EE0039ABF
S32500003440C4F3D321E80A0A43164940EA44500A433146CDE90002684618F05FFE159810F023
S32500003460240F0BD01598C00715D13868DDE90012031D3B600068C0E900120CE002A8694643
S3250000348018F042FE1598C00705D13868029A011D3960006802604046F0E6000002FCFFFF7F
S325000034A00000F07F0000F03F2DE9FF4F92461D4685B04FF00041DDE9124BDDE914727F1E08
S325000034C001EA4B50414940F0FF4940EA0108002122F020004928049102D04E2828D04CE066
S325000034E03BA0012607C88DE80700A9690698641C88477F1E014606D41DF8060018B121F0C7
S32500003500200181420BD0E96906988847032E34D0082E32D06FF0010009B0BDE8F08F761CEB
S32500003520032E01D0082EE0D1601CCAF80000DCE7A9690698641C88477F1E2AD420F02000D1
S32500003540412826D1A9690698641C88477F1E20D420F020004E281CD1A9690698641C8847E3
S325000035607F1E48F4002849F48009CAF8004001D4282806D0E969069888475FEACB7012D05C
S3250000358022E0A9690698641C88477F1E01D4002803DAE96906988847BCE72928F1D1641CB8
S325000035A0CAF80040E9E71BF0240F07D028680499031D2B600068C0E9001805E02868021D89
S325000035C02A600068C0F800902046A5E70000F07F494E46494E4954590000000010B50146D4
S325000035E0C268900703D0900607D5886A0AE0FDF7BBF901210160881E10BD8B694868184445
S325000036000B69C01A91F848301BB191F84910401A10BD1103FCD50028FADD401E10BD70B54C
S3250000362005460C460A2000E06D1C00F0CDF835B128780028F8D102E0641C00F0C5F814B154
S3250000364020780028F8D1BDE870400A2000F0BCB881B00090002001B07047000080B582B048
S32500003660009043F21440C0F20200FCF71FFFFFE74FF0A00080F31188BFF36F8FBFF34F8F55
S325000036800190F5E781B000904FF0FF3001B0704781B00090002001B07047000080B584B06E
S325000036A002900191029820B9FFE74FF0FF30039030E0029800783A2828D1FFE7029843F254
S325000036C02B41C0F20201FDF7F3F820B9FFE748F2010003901EE0029843F23A41C0F202015A
S325000036E0FDF7E6F820B9FFE748F20200039011E0029843F23241C0F20201FDF7D9F820B9DE
S32500003700FFE748F20300039004E0FFE74FF0FF300390FFE7039804B080BD000082B00190ED
S3250000372000914FF0FF3002B07047000080B588B006900591049203930698019048F20101EB
S3250000374088420CD0FFE7019848F2020188420AD0FFE7019848F20301884219D02DE04FF0A1
S32500003760FF3007902DE0FFE7049870B1FFE70598411C0591007802909DF8080015F07CFB34
S32500003780FFE7049801380490EEE70020079018E0FFE7049870B1FFE70598411C05910078BF
S325000037A002909DF8080015F041FBFFE7049801380490EEE70020079003E04FF0FF300790D0
S325000037C0FFE7079808B080BD80B582B001909DF8040015F051FB02B080BD000080B586B02D
S325000037E005900491FFE7059848B9FFE742F6D370C0F2020040F6280113F0C0FFFFE7FFE713
S32500003800059802900298283001900198808C00286BD0FFE70198808C4007002812D5FFE721
S325000038200198C08B0499884205D8FFE70298002102F032F805E0049A0199C88B801AC88348
S32500003840FFE7FFE7029800F031F98DF80F009DF80F00C00758B3FFE70198808C800700289E
S3250000386005D5FFE70298012102F016F8FFE70198808CC006002804D5FFE7029802F050F8BA
S32500003880FFE70198808C0007002804D5FFE7029802F02CF8FFE70198808C10F01A0F05D16F
S325000038A0FFE70199002081F82F00FFE7FFE7019890F82F00C007B8B9FFE70198808C800655
S325000038C0002810D5FFE70199086891F8341006F037FB00900298D0F810C04069009A0221C8
S325000038E00023E047FFE7FFE7FFE706B080BD0000EFF3108072B6704700207047EFF3108039
S3250000390062B670470020704780B582B00190ADF80210019800F0CAF88DF801009DF80100E5
S32500003920C00748B1FFE70198BDF80210002918BF012101F0B1FFFFE79DF8010000F001004B
S3250000394002B080BD80B582B00190019800F0AEF88DF803009DF80300C00720B1FFE7019814
S3250000396001F0C4FFFFE79DF8030000F0010002B080BD000080B582B00190019800F096F820
S325000039808DF803009DF80300C00720B1FFE7019801F0C6FFFFE79DF8030000F0010002B013
S325000039A080BD000080B588B006908DF8171004920393069840680068406802900020019050
S325000039C00090FFE7029810B3FFE702984078042816D1FFE7029880789DF8171088420FD1E5
S325000039E0FFE701980499884206D1FFE7009803990860029807900DE0019801300190FFE723
S32500003A000698029A694601F09DFD0290DAE700200790FFE7079808B080BD000083B00290E3
S32500003A200191019808B9FFE72BE000200090FFE70098072825D8FFE79DF80400C007A0B1B2
S32500003A40FFE70099012000FA01F3029AD2F8D0109943C2F8D010009900FA01F20299D1F82C
S32500003A60D4001043C1F8D400FFE7019840080190019808B9FFE704E0FFE7009801300090D1
S32500003A80D6E703B07047000082B001900091009A0199D1F8D4009043C1F8D40002B070470B
S32500003AA081B00090002001B07047000080B582B001900198D0F810C04069032100231A463E
S32500003AC0E04700900098B0FA80F0400902B080BD80B582B0022002F09FF907F045FC4FF2B3
S32500003AE01C00C4F20A00006800909DF8000010F00C0F03D0FFE7022001901CE045F6000099
S32500003B00CFF2000002F0D2F9022002F085F907F02BFC4FF21C00C4F20A00006800909DF8C7
S32500003B20000010F00C0F03D0FFE70220019002E000200190FFE7019802B080BD80B54EF282
S32500003B400000C4F20F0000680021C7F2FF0108400021C1F2050188420BD1FFE74EF200006A
S32500003B60C4F20F000068000418B9FFE707F0B2FBFFE74FF28001C4F20A010120CEF27B30BE
S32500003B80086007F0F1FB45F60000CFF2000002F08DF9022002F040F907F0E6FB4FF21800E2
S32500003BA0C4F20A00006880BD80B586B0049003910292FFE7049848B9FFE743F21210C0F201
S32500003BC002004FF4C27113F0D9FDFFE7FFE7FFE703984FF20001C4F20A01096889B2B0EBF7
S32500003BE0810F09D3FFE743F21210C0F2020040F2851113F0C3FDFFE7FFE7FFE703980299EF
S32500003C0008444FF20001C4F20A01096889B2B0EB810F09D9FFE743F21210C0F2020040F273
S32500003C20871113F0ABFDFFE7FFE7FFE79DF80C00800748B1FFE743F21210C0F202004FF434
S32500003C40C47113F09BFDFFE7FFE7FFE79DF80800800748B1FFE743F21210C0F2020040F29C
S32500003C60891113F08BFDFFE7FFE7FFE74FF21800C4F20A0000680190FFE79DF80400C0070F
S32500003C800028F3D1FFE7039880094FF20401C4F20A0108600398C0F383004FF20801C4F2E8
S32500003CA00A010860029880080290FFE7029800286FD0FFE74EF20000C4F20F00006800217C
S32500003CC0C7F2FF0108400021C1F2050188420CD1FFE74EF20000C4F20F000068000420B92C
S32500003CE0FFE7039807F018FBFFE7049800684FF21401C4F20A0108600A2002F08DF8FFE743
S32500003D004FF21800C4F20A0000680190FFE79DF80400C0070028F3D1FFE79DF80400C00614
S32500003D2000281DD5FFE74EF20000C4F20F0000680021C7F2FF0108400021C1F2050188424A
S32500003D400BD1FFE74EF20000C4F20F000068000418B9FFE707F0BEFAFFE70198059039E097
S32500003D60049804300490029801380290029878B1FFE74FF20800C4F20A00006840B9FFE77B
S32500003D804FF20401C4F20A01086801300860FFE78CE74EF20000C4F20F0000680021C7F26D
S32500003DA0FF0108400021C1F2050188420BD1FFE74EF20000C4F20F000068000418B9FFE727
S32500003DC007F088FAFFE74FF21800C4F20A0000680590FFE7059806B080BD000080B584B089
S32500003DE0039002910192FFE7039848B9FFE743F21210C0F202004FF49C7113F0BFFCFFE79D
S32500003E00FFE7FFE702984FF20001C4F20A01096889B2B0EB810F09D3FFE743F21210C0F291
S32500003E20020040F2391113F0A9FCFFE7FFE7FFE70298019908444FF20001C4F20A010968B0
S32500003E4089B2B0EB810F09D9FFE743F21210C0F2020040F23B1113F091FCFFE7FFE7FFE763
S32500003E609DF80800800748B1FFE743F21210C0F202004FF49E7113F081FCFFE7FFE7FFE7AA
S32500003E809DF80400800748B1FFE743F21210C0F2020040F23D1113F071FCFFE7FFE70298BC
S32500003EA080094FF20401C4F20A0108600298C0F383004FF20801C4F20A01086001988008A0
S32500003EC00190FFE7019800B3FFE74FF21400C4F20A000068039908600398043003900198B7
S32500003EE001380190019878B1FFE74FF20800C4F20A00006840B9FFE74FF20401C4F20A01F3
S32500003F00086801300860FFE7DCE704B080BD00004FF20000C4F20A00006880B28000704726
S32500003F2080B582B00090FFE7BDF80000800540B1FFE743F24F10C0F20200872113F01EFC80
S32500003F40FFE7FFE74DF21401C4F20F0140F60120086000984DF20001C4F20F0108604DF271
S32500003F600801C4F20F010220CAF242400860FFE74DF20800C4F20F0000688007002801D5C5
S32500003F80FFE7F5E74DF20C00C4F20F00006840F60121084204D0FFE74FF0FF30019002E0A4
S32500003FA000200190FFE7019802B080BD80B586B0049003910292FFE79DF80C00800740B1B6
S32500003FC0FFE743F24F10C0F20200C52113F0D6FBFFE7FFE7FFE79DF80800800740B1FFE746
S32500003FE043F24F10C0F20200C62113F0C7FBFFE7FFE74DF21401C4F20F0142F201600860E4
S32500004000FFE70298002848D0FFE7039820F07F004DF20001C4F20F010860FFE79DF80C00D5
S3250000402010F07C0F09D1FFE74DF23000C4F20F0001680020019031B9FFE70298002818BF78
S3250000404001200190FFE70198C00798B1FFE70498011D04910068039901F07C014DF2001221
S32500004060C4F20F028850039804300390029804380290D3E74DF22001C4F20F010120CAF214
S3250000408042400860FFE74DF22000C4F20F000068C00708B1FFE7F6E7B3E74DF20C00C4F2E0
S325000040A00F00006842F20161084204D0FFE74FF0FF30059002E000200590FFE7059806B016
S325000040C080BD000080B586B005908DF813100392FFE7059807F070F948B9FFE742F63750D7
S325000040E0C0F202004FF4997113F048FBFFE7FFE7FFE7039888B1FFE7039801280DD0FFE780
S325000041000398022809D0FFE742F63750C0F2020040F2351113F032FBFFE7FFE79DF80C008D
S32500004120C00740B1FFE70598D0F800049DF813100843029007E00598D0F800049DF81310D5
S3250000414088430290FFE702980599C1F800049DF80C008007002808D5FFE70598D0F8200485
S325000041609DF813100843019007E00598D0F820049DF8131088430190FFE701980599C1F84B
S32500004180200406B080BD000080B592B011908DF843100F920E93FFE7119807F00DF948B943
S325000041A0FFE742F63750C0F2020040F2312113F0E5FAFFE7FFE7FFE70F98012821D0FFE7E1
S325000041C00F9802281DD0FFE70F98652819D0FFE70F98662815D0FFE70F986E2811D0FFE72E
S325000041E00F9875280DD0FFE70F98772809D0FFE742F63750C0F202004FF40E7113F0BEFABD
S32500004200FFE7FFE7FFE70E98082822D0FFE70E980A281ED0FFE70E980C281AD0FFE70E983C
S32500004220092816D0FFE70E98B0F5847F11D0FFE70E98B0F5027F0CD0FFE70E9848B1FFE753
S3250000424042F63750C0F2020040F23F2113F096FAFFE7FFE74EF20000C4F20F000068002166
S32500004260C7F2FF0108400021C1F20501884234D0FFE700208DF83700FFE79DF837000728EC
S325000042802ADCFFE79DF843009DF83710C840C007D8B1FFE71198D0F8C40F9DF837104A00D0
S325000042A00321914088431199C1F8C40F0F98C0F341109DF83710490000FA01F21199D1F8D2
S325000042C0C40F1043C1F8C40FFFE7FFE79DF8370001308DF83700D0E7FFE79DF83C00C0076C
S325000042E040B1FFE71198D0F800059DF8431008430C9007E01198D0F800059DF8431088438C
S325000043000C90FFE70C981199C1F800059DF83C008007002808D5FFE71198D0F804059DF8B7
S32500004320431008430B9007E01198D0F804059DF8431088430B90FFE70B981199C1F804059A
S325000043409DF83C004007002808D5FFE71198D0F808059DF8431008430A9007E01198D0F8B1
S3250000436008059DF8431088430A90FFE70A981199C1F808059DF83C000007002808D5FFE722
S325000043801198D0F818059DF843100843099007E01198D0F818059DF8431088430990FFE716
S325000043A009981199C1F818054EF20000C4F20F0000680021C7F2FF0108400021C1F205016D
S325000043C088421BD0FFE79DF83C00C006002808D5FFE71198D0F83C059DF84310084308903D
S325000043E007E01198D0F83C059DF8431088430890FFE708981199C1F83C05FFE79DF83800F6
S32500004400C00740B1FFE71198D0F80C059DF843100843079007E01198D0F80C059DF843105B
S3250000442088430790FFE707981199C1F80C059DF838008007002808D5FFE71198D0F8100556
S325000044409DF843100843069007E01198D0F810059DF8431088430690FFE706981199C1F8F0
S3250000446010059DF838004007002808D5FFE71198D0F814059DF843100843059007E0119840
S32500004480D0F814059DF8431088430590FFE705981199C1F814059DF838000007002808D515
S325000044A0FFE71198D0F81C059DF843100843049007E01198D0F81C059DF8431088430490F7
S325000044C0FFE704981199C1F81C054EF20000C4F20F0000680021C7F2FF0108400021C1F26D
S325000044E00501884234D0FFE79DF839008007002808D5FFE71198D0F844059DF843100843CF
S32500004500039007E01198D0F844059DF8431088430390FFE703981199C1F844059DF8390020
S32500004520800740B1FFE71198D0F840059DF843100843029007E01198D0F840059DF8431017
S3250000454088430290FFE702981199C1F84005FFE70E9840B9FFE71198D0F828059DF84310DF
S325000045600843019007E01198D0F828059DF8431088430190FFE701981199C1F8280512B0BF
S3250000458080BD000080B584B00390FFE79DF80E00122809D3FFE742F63750C0F2020040F6AE
S325000045A0B11113F0EBF8FFE7FFE7FFE70399E32010EA112F09D0FFE742F63750C0F2020090
S325000045C040F6B21113F0DAF8FFE7FFE79DF80E0002904EF26C00C4F20F0000680299C8408A
S325000045E0C00750B1FFE7029942F21450C0F2020000EBC1004068029008E0029942F214501F
S32500004600C0F2020050F831000290FFE79DF80D0001900298D0F82C05019A0F2191408843C2
S32500004620039901F00F01914008430299C1F82C0504B080BD80B582B001908DF80310FFE7CF
S32500004640019806F0B9FE48B9FFE742F63750C0F2020040F2644113F091F8FFE7FFE70198EC
S325000046609DF8031050F8210002B080BD80B584B003908DF80B10FFE7039806F09DFE48B985
S32500004680FFE742F63750C0F2020040F2516113F075F8FFE7FFE703989DF80B10012201929A
S325000046A00823FFF771FD019A03989DF80B10FFF709FD04B080BD000080B582B001908DF815
S325000046C00310FFE7019806F077FE48B9FFE742F63750C0F2020040F69E0113F04FF8FFE778
S325000046E0FFE701989DF803100222FFF7EBFC01989DF8031001220823FFF746FD02B080BDD5
S3250000470080B584B003908DF80B10FFE7039806F053FE48B9FFE742F63750C0F202004FF492
S325000047200D6113F02BF8FFE7FFE703989DF80B1000220192FFF7C6FC019B03989DF80B1074
S325000047400122FFF721FD04B080BD000080B582B001908DF803108DF80220FFE7019806F07F
S325000047602BFE48B9FFE742F63750C0F2020040F2844113F003F8FFE7FFE79DF802000199BE
S325000047809DF8032041F8220002B080BD85B004900391029201930498807800F00F0003995D
S325000047A00860049880886FF3DF2002990860049881784FF4005000EA811001990860049842
S325000047C0C07800F0030001460091032817D80099DFE801F00214080E0199086840F440704B
S325000047E008600CE00199086840F48070086006E00199086840F40070086000E0FFE705B052
S325000048007047000085B00390029100200190FFE70198082814D8FFE7019908208840009034
S3250000482000980399884206D3FFE70098029908600198049009E0FFE7019801300190E7E7F5
S325000048400299002008600490FFE7049805B0704780B584B003900291FFE7039848B9FFE7B6
S3250000486042F6D370C0F2020040F26E5112F086FFFFE7FFE703980090009828300190019979
S325000048800120C876019988760199087601994876019890F83100C00748B9FFE70098D0F84B
S325000048A008C0C068002319461A46E047FFE70199012081F8310004B080BD000080B584B054
S325000048C003900398D0F804C08068032100231A46E04701900398203006F072FA0290029858
S325000048E00199084404B080BD80B588B00790069105920798029002982830049005980390C2
S3250000490006980E3801460191082800F283800199DFE801F0051C80408080645672000398B5
S32500004920007830B9FFE703984078049981F835000BE003980078012806D1FFE70398407855
S32500004940049981F83600FFE7FFE764E0039800780006002816D5FFE70398007800F07F0061
S32500004960012807D1FFE7039840780001049981F8320006E0039840780001049981F833002B
S32500004980FFE706E0039840780001049981F83400FFE740E0049890F8350003998870049818
S325000049A090F8350003994877049890F8360003998877049890F83600039981F823002AE048
S325000049C00298806848B1FFE70298D0F808C0C068152100231A46E047FFE71CE002988068DA
S325000049E048B1FFE70298D0F808C0C068142100231A46E047FFE70EE00298806848B1FFE76C
S32500004A000298D0F808C0C068162100231A46E047FFE700E0FFE708B080BD000080B584B053
S32500004A200390FFE7039848B9FFE742F6D370C0F2020040F2C27112F0A1FEFFE7FFE70398D9
S32500004A400290029828300190019890F83100C00748B1FFE70298D0F808C0C06801210023AC
S32500004A601A46E047FFE70199002081F8310004B080BD000080B586B005900491FFE7059856
S32500004A8048B9FFE742F6D370C0F2020040F2A45112F074FEFFE7FFE705980390049808B906
S32500004AA0FFE73EE00398283002900298807E022801D0FFE735E00298007F20281FD1FFE7A2
S32500004AC00498072804D0FFE7002003F01DF815E0029824300321012200F09EFF0398FEF7DC
S32500004AE031FF8DF807009DF80700C00728B9FFE70299012081F82F00FFE7FFE70DE000208D
S32500004B0003F002F8FFE742F6D370C0F2020040F2F45112F033FEFFE7FFE70299012088765D
S32500004B20FFE706B080BD000080B584B003900291FFE7039848B9FFE742F6D370C0F2020070
S32500004B4040F23B5112F01AFEFFE7FFE7039801900198283000900298009991F832100909EE
S32500004B60C840C00728B1FFE70198029900F0C4FDFFE70298009991F834100909C840C003F9
S32500004B80002805D5FFE70198029900F00BFDFFE70298009991F833100909C840C00728B15C
S32500004BA0FFE70198029900F057FDFFE704B080BD80B586B00490039102920498203005F0B2
S32500004BC09FFF019001980399884209D3FFE70499C86A496A0844029908600398059004E0FA
S32500004BE00299002008600590FFE7059806B080BD80B58AB009900891FFE7099848B9FFE772
S32500004C0042F6D370C0F2020040F2AC6112F0B6FDFFE7FFE70998079007982830069008983A
S32500004C208088069991F83510884201D0FFE7E7E00898407801460391532800F2DD80039918
S32500004C40DFE811F0540058005C0060006400DA00DA00DA00DA00DA00DA00DA00DA00DA0010
S32500004C60DA00DA00D600D600D600D600D600D600DA00DA00DA00DA00DA00DA00DA00DA00A6
S32500004C80DA00DA0068007D009400B400DA00DA00DA00DA00DA00DA00DA00DA00DA00DA00A9
S32500004CA0DA00DA00D600D600D600D600D600D600D600D600D600D600D600DA00DA00DA007A
S32500004CC0DA00DA00D600D600D600D600D600DA00DA00DA00DA00DA00DA00DA00DA00DA0042
S32500004CE0DA00DA00D600D600D600D600002002F00BFF85E0002002F007FF81E0002002F096
S32500004D0003FF7DE0002002F0FFFE79E0002002F0FBFE75E006992020087706990220887649
S32500004D20069800F1280100200290072202F0A8FE029A06980068114604F03EF960E0069840
S32500004D40006800220192114604F036F9019A0798D0F808C0C06848F2040104AB0093E0471C
S32500004D6000990198072202F0ADFE49E0069800680022114604F020F90898408806990884ED
S32500004D80069824300421012200F046FE0798FEF7F1FD8DF817009DF81700C00728B9FFE747
S32500004DA00699012081F82F00FFE729E0069800680022114604F000F9089840880699C883D8
S32500004DC0069824300122114600F026FE079808994988FEF799FD8DF817009DF81700C007A2
S32500004DE028B9FFE70699012081F82F00FFE707E0002002F089FE03E0002002F085FEFFE7BA
S32500004E000AB080BD80B582B00190FFE7019848B9FFE742F6D370C0F2020040F6050112F0CA
S32500004E20ADFCFFE7FFE7019800900098D0F808C0C068082100231A46E04702B080BD0000BC
S32500004E4080B588B0079006910592059890B3FFE7059807998969884210D3FFE70598079A54
S32500004E609169D2691144884208D2FFE707982030069905F0E1FD002001901AE0079820301D
S32500004E8005F0BAFE049004980699884203D2FFE70498009002E006980090FFE700980390BE
S32500004EA0079820300599039A05F0B6FF03980190FFE743E007980169406988470290079831
S32500004EC0203005F01DFE0490079AD2F80CC05069D16A526A1144049A0123E0470390039885
S32500004EE030B1FFE707982030039905F0A5FDFFE70398029988421ED2FFE70798203005F023
S32500004F00FFFD04900498A8B1FFE7079AD2F80CC05069D16A526A1144049A0123E047029069
S32500004F20029830B1FFE707982030029905F084FDFFE7FFE7FFE700200190FFE707982030D2
S32500004F4005F03EFF0490079B049AD3F804C09868D96A9B6A0B440221E04703900798203053
S32500004F60039905F03DFD019808B080BD80B582B00190FFE7019848B9FFE742F6D370C0F247
S32500004F80020040F2EC7112F0F9FBFFE7FFE7019800900098D0F808C0C068072100231A4694
S32500004FA0E04702B080BD000080B582B00190009101982030009905F013FD019800F0CAFB77
S32500004FC0002002B080BD000080B582B00190FFE701989B2809D3FFE742F67250C0F2020012
S32500004FE040F2B12112F0CAFBFFE7FFE70198042809D1FFE74EF62451CEF20001086820F491
S32500005000803008603EE00198052809D1FFE74EF62451CEF20001086820F40030086030E028
S325000050200198062809D1FFE74EF62451CEF20001086820F48020086022E001980F2809D131
S32500005040FFE74EF21001CEF20001086820F00200086014E00198102810D3FFE70198A0F1B0
S32500005060100101F01F02012090404A0942F2EC41C0F2020151F822100860FFE7FFE7FFE718
S32500005080FFE7FFE702B080BD80B582B00190FFE701989B2809D3FFE742F67250C0F20200A5
S325000050A040F2672112F06AFBFFE7FFE70198042809D1FFE74EF62451CEF20001086840F45A
S325000050C0803008603EE00198052809D1FFE74EF62451CEF20001086840F40030086030E048
S325000050E00198062809D1FFE74EF62451CEF20001086840F48020086022E001980F2809D151
S32500005100FFE74EF21001CEF20001086840F00200086014E00198102810D3FFE70198A0F1CF
S32500005120100101F01F02012090404A0942F20051C0F2020151F822100860FFE7FFE7FFE733
S32500005140FFE7FFE702B080BD80B582B00190FFE701989B2809D3FFE742F67250C0F20200E4
S3250000516040F2FE2112F00AFBFFE7FFE7002000900198042809D1FFE74EF62450CEF2000058
S32500005180006800F48030009041E00198052809D1FFE74EF62450CEF20000006800F40030C2
S325000051A0009033E00198062809D1FFE74EF62450CEF20000006800F48020009025E001981D
S325000051C00F2809D1FFE74EF21000CEF20000006800F00200009017E00198102813D3FFE744
S325000051E001981038410942F20050C0F2020050F8210000680199103901F01F02012191408D
S3250000520008400090FFE7FFE7FFE7FFE7FFE7009802B080BD80B5FEF76BFB002818BF0120FB
S3250000522080BD000080B5FEF769FB002818BF012080BD000080B582B00190FFE701989B2806
S3250000524009D3FFE742F67250C0F2020040F2513112F094FAFFE7FFE70198022809D1FFE745
S325000052604EF60451CEF20001086840F00040086030E001980E2809D1FFE74EF60451CEF28E
S325000052800001086840F08050086022E001980F2809D1FFE74EF60451CEF20001086840F0A3
S325000052A08060086014E00198102810D3FFE70198A0F1100101F01F02012090404A0942F24D
S325000052C0A451C0F2020151F822100860FFE7FFE7FFE7FFE702B080BD80B584B003908DF833
S325000052E00B10FFE70398042804D3FFE703989B2809D3FFE742F67250C0F2020040F21621EC
S3250000530012F03CFAFFE7FFE7039820F0030042F2B851C0F20201085800680190039800F0FF
S325000053200300C200FF2000FA02F20198904301909DF80B00039A02F00302D20000FA02F2A4
S325000053400198104301900198039A22F003028958086004B080BD000080B584B003900291B4
S32500005360FFE703989B2809D3FFE742F67250C0F202004FF49E7112F001FAFFE7FFE7FFE772
S32500005380012048B9FFE742F67250C0F2020040F2411112F0F3F9FFE7FFE74EF60850CEF2B7
S325000053A00000006840F60001C2F20001884227D0FFE74EF60850CEF2000000680090002078
S325000053C00190FFE701989A2810D8FFE70199009850F82100019A40F60001C2F2000141F8CC
S325000053E02200FFE7019801300190EBE740F60000C2F200004EF60851CEF200010860FFE7DC
S325000054000298039A40F60001C2F2000141F8220004B080BD84B00290019100200090FFE729
S32500005420009805281FDCFFE7009941F67400C2F2000050F8210088B9FFE70298009A41F6CD
S325000054407401C2F2000141F822000198009A41F63421C2F2000141F8220004E0FFE7009890
S3250000546001300090DCE70098062804D1FFE74FF0FF30039002E000200390FFE7039804B056
S325000054807047000080B582B00190019A41F64C21C2F2000108681044086000200090FFE7A1
S325000054A0009805281EDCFFE7009941F67400C2F2000050F8210080B1FFE7009941F6740085
S325000054C0C2F2000050F8212041F63420C2F2000050F8210001999047FFE7FFE700980130DB
S325000054E00090DDE702B080BD81B041F67000C2F200000078C00710BBFFE700200090FFE751
S325000055000098052814D8FFE7009A41F67401C2F20001002041F82200009A41F63421C2F29E
S32500005520000141F82200FFE7009801300090E7E741F67001C2F2000101200870FFE701B06F
S325000055407047000083B00290019100920098017808440090009802994968019A126851F876
S325000055602220516812881144884218D3FFE701990868013008600198006802990978884216
S3250000558009D2FFE7029840680199096850F821004068009002E000200090FFE7FFE7009860
S325000055A003B0704780B586B0049003910498283000900099086891F8341004F0A7FE029063
S325000055C00099086891F83410029A03F057FE9DF80A00C00718B3FFE70098243005210122BF
S325000055E000F01AFA009890F83000C007B0B9FFE7009890F82F00C00780B9FFE700990868FD
S3250000560091F8341004F09CFC01900498D0F810C04069019A02210023E047FFE714E09DF846
S325000056200A0010F00E0F0BD0FFE70498D0F810C04069029901F4602206210023E047FFE736
S3250000564000208DF8170003E001208DF81700FFE79DF8170006B080BD80B586B005900491CE
S325000056600598283003900399086891F8331004F04DFE02900399086891F83310029A03F08C
S32500005680FDFD0399012048760398C08C80B3FFE70398C08C40F27461C2F200010988401A01
S325000056A0B0FA80F040098DF803000398C08C019003980023C3840598D0F818C0C069019A7B
S325000056C00521E0479DF80300C00780B1FFE70398C08C60B9FFE70399022048760399086893
S325000056E091F833104FF4817204F090FDFFE7FFE7012006B080BD000080B586B005900491AC
S3250000570001208DF807000598283002900299086891F8321004F0FAFD03900299086891F867
S325000057203210039A03F0AAFD0298808CC00730B1FFE7059800F00EF98DF8070003E0029918
S325000057400120C876FFE79DF8070000F0010006B080BD000080B58EB00D900D9801694069B6
S3250000576088470C900C98002800F09380FFE70D98203005F0F5F90B900D98203005F020FB8B
S325000057800A900C980A99884203D2FFE70C98089002E00A980890FFE7089809900B9800285B
S325000057A05DD0FFE709980D9908630B980C99884203D2FFE70B98079002E00C980790FFE714
S325000057C007980B900D99C868029048690390C86A896A084404900B9905910C9A0020914205
S325000057E0069008D2FFE70B990A9A0020914238BF01200690FFE7DDF808C0059A049903980A
S32500005800DDF818E0012323EA0E03E0470B980C99884223D2FFE70B980A9988421ED2FFE779
S325000058200B990C98401A0C900A980B99401A0B900B980C99884203D9FFE70C98019002E0FE
S325000058400B980190FFE701980B900D99D1F80CC04869C96A0B9A0123E047FFE718E00D9862
S32500005860006B0C99884212D1FFE70D9890F83400C00758B1FFE70D98002202630D99D1F8CD
S325000058800CC04869C96A0123E047FFE7FFE7FFE7FFE70EB080BD000080B584B003908DF8F3
S325000058A00B100398283001900198243001210022009200F0B1F8019824309DF80B1001F059
S325000058C00102022100F0A8F8009B0398D0F808C0C0689DF80B10CA0748F20101002A18BF60
S325000058E04FF400411A46E04704B080BD80B584B003900398283002900298243003210022F1
S32500005900019200F089F8019A0398D0F808C0C068029901F1280348F20301E04704B080BD81
S3250000592080B584B003900398283002900298243004210022019200F06FF8019B0398D0F8C2
S3250000594008C0C06802990A8C48F20201E04704B080BD000080B58AB0089008982830049038
S32500005960049902200290C8760498243000220192114600F051F801990298049A528CADF808
S325000059801620A1228DF8182020228DF81920ADF81A10ADF81C10ADF81E000499086891F852
S325000059A0321006AA082304F0B9FB029B03900499086891F832100DF1160204F0AFFB0390CD
S325000059C00398013050B1FFE70499086891F832104FF4817204F01AFC0390FFE703980130B1
S325000059E038B9FFE704990120C87600208DF827000DE0BDF816104FF68F7060EA010204990C
S32500005A00488C1040488401208DF82700FFE79DF827000AB080BD000082B00190ADF80210B0
S32500005A208DF801209DF8010000F00100019A02F070416FF31F5241EA4211BDF8022041EAA2
S32500005A4082014FF00072885202B0704780B58EB00C900B914EF20000C4F20F000068002190
S32500005A60C7F2FF0108400021C1F20501884203D1FFE700200D90CCE10C98C0F384100890D4
S32500005A800C9800F0380010280AD1FFE742F20040C0F2F4000490002003901520089073E0BA
S32500005AA00C9800F03800302807D1FFE747F2305004904FF40010039065E00C9800F03800BA
S32500005AC0382807D1FFE74FF4004004904FF48000039057E09DF8300010F0380F4DD1FFE7EE
S32500005AE008981A2804DCFFE70898082803DCFFE700200D908DE1089942F25C60C0F20200F3
S32500005B0050F8210004904FF440100390039840F0407003904EF27C00C4F20F00006820F055
S32500005B201C0007900898072805DBFFE7079840F010000790FFE707984EF27C01C4F20F0199
S32500005B4008604FF400200690FFE74EF25000C4F20F000068C005002808D4FFE706980138B5
S32500005B600690069808B9FFE700E0EEE7069818B9FFE700200D904CE103E000200490039026
S32500005B80FFE7FFE7FFE7FFE79DF8310010F0380F40F0D980FFE79DF8300010F0380F09D006
S32500005BA0FFE70C9800F03800102803D0FFE700200D902EE19DF8330000F007000990FFE732
S32500005BC00998022809DBFFE742F6B250C0F2020040F6EE0111F0D2FDFFE7FFE747F64000FE
S32500005BE0C0F27D1005F04EFD4EF2C001C4F20F01009108604EF2B001C4F20F0108684FF6F4
S32500005C000042CEF20F0210400290029840F00040029002980860089809380890099A42F29B
S32500005C205460C0F2020050F822000B9A10440138B0FBF2F00590039A0868104308600998CF
S32500005C4042F2E812C0F20202D82100FB0120089B03EB430300EB830040684EF26413C4F2EB
S32500005C600F031860DDF814C06FF0FF0000EB0C2C186840EA0C001860099800FB01200899DE
S32500005C8001EB410150F821004EF26011C4F20F0101910A6802F4000210430860049805F0A8
S32500005CA0ABFC40080B900B9805F0ECFC009A01460198116000680002002809D5FFE74EF253
S32500005CC0B001C4F20F01086840F08040086008E04EF26011C4F20F01086840F40000086014
S32500005CE0FFE74FF400400A90FFE70A9801280EDBFFE74EF26810C4F20F000068C00708B1B6
S32500005D00FFE704E0FFE70A9801380A90EDE70A98A8B1FFE74EF2B001C4F20F0108680290EA
S32500005D200398029A10430122C1F2000210430290029840F0004002900298086002E0002076
S32500005D400B90FFE75AE042F20040C0F2F40005F099FC4EF2C001C4F20F0108604EF26011FE
S32500005D60C4F20F01086820F4000008604EF2B001C4F20F0108680290029840F2FF32CEF6F1
S32500005D80007210400290029840F000400290029808600B9818B9FFE70020059012E004986E
S32500005DA00B99B0FBF1F00590059820B1FFE7059801380590FFE7049805990131B0FBF1F07B
S32500005DC00B90FFE70B9805F05DFC4EF2C001C4F20F0108604EF2B001C4F20F010868029063
S32500005DE0059A039840EA8222029810430290029840F00040029002980860FFE74EF2B001A1
S32500005E00C4F20F01086820F4700008600B980D90FFE70D980EB080BD01387FF4FDAF704785
S32500005E2080B582B00190FFE7019805F055FC48B9FFE742F6B250C0F2020040F2523111F014
S32500005E409DFCFFE7FFE7019901F47F40C008C9B240EA81014CF20002C4F2FC32012088507D
S32500005E6002B080BD80B582B00190FFE7019805F033FC48B9FFE742F6B250C0F2020040F28B
S32500005E80812111F07BFCFFE7FFE7019901F47F40C008C9B240EA810044F20001C4F2FD31BF
S32500005EA04058002818BF012002B080BD80B582B00190FFE7019805F00FFC48B9FFE742F69F
S32500005EC0B250C0F2020040F2053111F057FCFFE7FFE7019901F47F40C008C9B240EA810141
S32500005EE04AF20002C4F2FC320120885000200090FFE700980F2805D8FFE7FFE700980130AA
S32500005F000090F6E7019901F47F40C008C9B240EA81014AF20002C4F2FC320020885002B005
S32500005F2080BD00004EF27001C4F20F01086820F480400860704700008DB00B900A914EF291
S32500005F400000C4F20F0000680021C7F2FF0108400021C1F20501884206D1FFE70A990020C8
S32500005F6008608DF8330052E04EF2B000C4F20F0000680890089800F08050B0F1805F06D05E
S32500005F80FFE70A99002008608DF833003FE00B98C0F384100990099942F25C60C0F202004A
S32500005FA050F8210005904EF26010C4F20F00006807904EF26410C4F20F0000680690079853
S32500005FC06FF39F2004900798C0F389200390069800F01F0002900698C0F304200190059995
S32500005FE004984843039A514300EB91200090029801300199013141430098B0FBF1F0009048
S3250000600000980A99086001208DF83300FFE79DF833000DB0704700004EF21001CEF20001CA
S32500006020086840F005000860704700004EF21001CEF20001086840F00200086070470000C3
S3250000604080B582B00190FFE7019828B1FFE70198B0F1807F08D9FFE742F6EF50C0F20200D9
S32500006060E22111F08BFBFFE7FFE7019801384EF21401CEF20001086002B080BD80B582B01E
S3250000608001900091FFE7019805F056FE48B9FFE742F62D60C0F202004FF4B17111F06EFBE1
S325000060A0FFE7FFE7FFE7009820F4702021282AD0FFE7009820F47020312824D0FFE70098BC
S325000060C020F4702022281ED0FFE7009820F47020322818D0FFE7009820F47020B0F1807FB8
S325000060E011D0FFE79DF803104FF08060B0EB016F09D0FFE742F62D60C0F202004FF4B47161
S3250000610011F03CFBFFE7FFE7FFE79DF803104FF08060B0EB016F40F08C80FFE79DF8000006
S3250000612021282DD0FFE79DF80000312828D0FFE79DF80000222823D0FFE79DF800003228BA
S325000061401ED0FFE79DF80000032819D0FFE79DF80000132814D0FFE79DF8000007280FD099
S32500006160FFE79DF8000017280AD0FFE79DF80000092805D0FFE79DF800000A2850D1FFE750
S325000061809DF801104FF40450B0EB012F51D0FFE79DF801104FF44450B0EB012F49D0FFE7A3
S325000061A09DF801104FF40850B0EB012F41D0FFE79DF801104FF44850B0EB012F39D0FFE79B
S325000061C09DF801104FF44070B0EB012F31D0FFE79DF801104FF49850B0EB012F29D0FFE7F3
S325000061E09DF801104FF4E060B0EB012F21D0FFE79DF801104FF4B850B0EB012F19D0FFE743
S325000062009DF801104FF41060B0EB012F11D0FFE79DF801104FF42060B0EB012F09D0FFE79A
S3250000622042F62D60C0F2020040F27D1111F0A6FAFFE7FFE70199C86840F201129043C860A8
S325000062409DF80300019908604EF20000C4F20F0000680021C7F2FF0108400021C1F20A0130
S32500006260884216D1FFE7009800F47021C0B240EA111000F5007001994860009800F4700103
S32500006280C0F3072040EA112000F50070019988600CE00098022161F31F20019A50600098BF
S325000062A0000A61F31F2001998860FFE702B080BD80B584B0039002910192FFE7039805F04C
S325000062C03BFD48B9FFE742F62D60C0F2020040F21D2111F053FAFFE7FFE7FFE70298FF28EF
S325000062E014D0FFE70298B0F57F4F0FD0FFE702984FF6FF71884209D0FFE742F62D60C0F2AD
S32500006300020040F21F2111F039FAFFE7FFE7029840F60C41084002900398C068029A9043DA
S325000063200199114008440399C86004B080BD000080B582B001900091FFE7019805F0FCFC76
S3250000634048B9FFE742F62D60C0F2020040F2F96111F014FAFFE7FFE700980199C86602B05E
S3250000636080BD000080B582B001900091FFE7019805F0E2FC40B9FFE742F62D60C0F20200A7
S32500006380F62111F0FBF9FFE7FFE7FFE70098FF2813D0FFE70098B0F57F4F0ED0FFE700984A
S325000063A04FF6FF71884208D0FFE742F62D60C0F20200F82111F0E2F9FFE7FFE700994FF682
S325000063C0FE60CFF6FF7060EA01020199C8681040C86002B080BD000080B582B0019000911E
S325000063E0FFE7019805F0A8FC40B9FFE742F62D60C0F20200D82111F0C1F9FFE7FFE7FFE7C1
S325000064000098FF2813D0FFE70098B0F57F4F0ED0FFE700984FF6FF71884208D0FFE742F612
S325000064202D60C0F20200DA2111F0A8F9FFE7FFE7009840F2011100EA01020199C8681043C6
S32500006440C86002B080BD000080B582B001900091FFE7019805F070FC48B9FFE742F62D600A
S32500006460C0F2020040F22D6111F088F9FFE7FFE700980199486202B080BD000080B582B022
S3250000648001900091FFE7019805F056FC48B9FFE742F62D60C0F2020040F2C55111F06EF9FE
S325000064A0FFE7FFE7009A019988691043886102B080BD000080B584B0039002910192FFE7B2
S325000064C0039805F039FC48B9FFE742F62D60C0F2020040F25E5111F051F9FFE7FFE7FFE7B3
S325000064E00298FF2814D0FFE70298B0F57F4F0FD0FFE702984FF6FF71884209D0FFE742F629
S325000065002D60C0F202004FF4AC6111F037F9FFE7FFE70398029905F0A3FC0090FFE700980F
